S00F000050726F6A6563742E737265633E
S11300000C942A000C943F000C943F000C943F0085
S11300100C943F000C943F000C943F000C943F0060
S11300200C943F000C943F000C943F000C943F0050
S11300300C943F000C943F000C943F000C943F0040
S11300400C943F000C943F000C943F000C943F0030
S11300500C943F0011241FBECFE5D8E0DEBFCDBF16
S113006010E0A0E6B0E0E4E9FBE002C005900D92E8
S1130070A436B107D9F70E9499020C94C8050C94D0
S11300800000672B09F09FC0009711F4D8980895D9
S11300908130910511F4D99808958230910511F4B5
S11300A0DA9808958330910511F4DB98089584302B
S11300B0910511F4DC9808958530910511F4DD98CB
S11300C008958630910511F4DE98089587309105DE
S11300D011F4DF9808958A30910511F4C0980895B9
S11300E08B30910511F4C19808958C30910511F469
S11300F0C29808958D30910511F4C39808958E30F7
S1130100910511F4C49808958F30910511F4C598A0
S113011008958031910511F4C698089581319105AF
S113012011F4C79808958431910511F4A89808959D
S11301308531910511F4A99808958631910511F43A
S1130140AA9808958731910511F4AB9808958831E0
S1130150910511F4AC9808958931910511F4AD9885
S113016008958A31910511F4AE9808958B31910563
S113017011F4AF9808958E31910511F49098089573
S11301808F31910511F4919808958032910511F4FD
S1130190929808958132910511F4939808958232CA
S11301A0910511F4949808958332910511F495986A
S11301B008958432910511F496980895859709F06D
S11301C09FC097980895009711F4D89A08958130A4
S11301D0910511F4D99A08958230910511F4DA9AAF
S11301E008958330910511F4DB9A089584309105C4
S11301F011F4DC9A08958530910511F4DD9A08957F
S11302008630910511F4DE9A08958730910511F432
S1130210DF9A08958A30910511F4C09A08958B30BD
S1130220910511F4C19A08958C30910511F4C29A84
S113023008958D30910511F4C39A08958E30910577
S113024011F4C49A08958F30910511F4C59A089554
S11302508031910511F4C69A08958131910511F404
S1130260C79A08958431910511F4A89A08958531A7
S1130270910511F4A99A08958631910511F4AA9A69
S113028008958731910511F4AB9A08958831910549
S113029011F4AC9A08958931910511F4AD9A089539
S11302A08A31910511F4AE9A08958B31910511F4B8
S11302B0AF9A08958E31910511F4909A08958F3173
S11302C0910511F4919A08958032910511F4929A4E
S11302D008958132910511F4939A0895823291051B
S11302E011F4949A08958332910511F4959A08951E
S11302F08432910511F4969A0895859709F4979A92
S11303000895CF93C82F80FF07C061E070E08EE1AD
S113031090E00E94410006C060E070E08EE190E051
S11303200E944100C1FF07C061E070E08FE190E0EE
S11303300E94410006C060E070E08FE190E00E94FE
S11303404100C2FF07C061E070E080E290E00E94DB
S1130350410006C060E070E080E290E00E9441004D
S1130360C3FF07C061E070E081E290E00E944100B9
S113037006C060E070E081E290E00E944100C4FFAA
S113038007C061E070E082E290E00E94410006C094
S113039060E070E082E290E00E944100C5FF07C087
S11303A061E070E083E290E00E94410006C060E0FA
S11303B070E083E290E00E944100C6FF07C061E064
S11303C070E084E290E00E94410006C060E070E0CA
S11303D084E290E00E944100CC233CF461E070E0B0
S11303E085E290E00E94410006C060E070E085E292
S11303F090E00E944100CF910895CF93C82F60E010
S113040070E08AE190E00E9441008C2F0E948101FB
S113041061E070E08BE190E00E94410089EF90E0A0
S11304200197F1F700C0000060E070E08BE190E01C
S11304300E94410089EF90E00197F1F700C00000AD
S1130440CF91089581E00E94FD01089560E070E07D
S11304508AE190E00E94410060E070E08BE190E06E
S11304600E94410087E893E10197F1F700C0000082
S113047080E30E94FD0181EE94E00197F1F700C052
S1130480000080E30E94FD0189EF90E00197F1F7FD
S113049000C0000080E30E94FD0183EC99E0019715
S11304A0F1F700C0000088E30E94FD018CE00E9487
S11304B0FD0181E00E94FD0186E00E94FD01089596
S11304C0CF93C82F61E070E08AE190E00E94410080
S11304D08C2F0E94810161E070E08BE190E00E942A
S11304E0410089EF90E00197F1F700C0000060E05F
S11304F070E08BE190E00E94410089EF90E0019769
S1130500F1F700C00000CF910895CF93DF93EC0181
S11305108881882331F021960E946002899181119B
S1130520FBCFDF91CF91089583B7896683BFBB9AD0
S11305300895CF93DF9300D000D01F92CDB7DEB7DC
S11305400E94940284E68CBF8FEF81BB84BB0E941F
S11305502602D09880EC87B987E886B90F2EF0E69A
S1130560EF2EF0E0FF2EF02D8E010F5F1F4F369A15
S11305703699FECF84B125B190E0922B9F938F934F
S1130580FF92EF921F930F930E94DE0280E80E9475
S1130590FD01C8010E9485022FE38DE093E0215004
S11305A080409040E1F700C000000E9422020F90BA
S11305B00F900F900F900F900F90D9CFAEE0B0E056
S11305C0E4EEF2E00C949F050D891E8986E08C838D
S11305D01A8309838FEF9FE79E838D83AE01475E65
S11305E05F4F6F89788DCE0101960E940003EF81E1
S11305F0F885E00FF11F10822E96E4E00C94BB0501
S1130600ABE0B0E0E6E0F3E00C9491056C017B0113
S11306108A01FC0117821682838181FFCCC1CE013D
S113062001963C01F6019381F70193FD859193FFB7
S113063081917F01882309F4BAC1853239F493FD8D
S1130640859193FF81917F01853229F4B60190E071
S11306500E94F704E7CF912C212C312CFFE1F315F4
S1130660D8F08B3279F038F4803279F08332A1F407
S1130670232D20611DC08D3261F0803369F4232D58
S1130680216016C0832D8260382EE32DE4603E2E57
S11306902AC0F32DF8601DC037FC2DC020ED280FB3
S11306A02A3040F08E32B9F436FC81C1232D206407
S11306B0322E19C036FE06C08AE0989E200D112401
S11306C0922E11C0EAE02E9E200D1124222EF32D2D
S11306D0F0623F2E08C08C3621F4832D8068382EBA
S11306E002C0883641F4F70193FD859193FF81910F
S11306F07F018111B3CF982F9F7D9554933028F4B7
S11307000C5F1F4F9FE399830DC0833631F083370D
S113071071F0833509F059C021C0F80180818983C3
S11307200E5F1F4F88248394912C530113C028011A
S1130730F2E04F0E511CF801A080B18036FE03C0D8
S1130740692D70E002C06FEF7FEFC5010E94EC04D9
S11307504C018201F32DFF773F2E16C0280122E0C1
S1130760420E511CF801A080B18036FE03C0692DF1
S113077070E002C06FEF7FEFC5010E94E1044C01FD
S1130780F32DF0683F2E820133FC1BC0822D90E0D4
S113079088169906B0F4B60180E290E00E94F7044E
S11307A02A94F4CFF50137FC859137FE81915F01DE
S11307B0B60190E00E94F70421102A9421E0821AE5
S11307C091088114910471F7E8C0843611F08936D8
S11307D041F5F80137FE07C0608171818281938100
S11307E00C5F1F4F08C060817181072E000C880BBD
S11307F0990B0E5F1F4FF32DFF763F2E97FF09C015
S113080090958095709561957F4F8F4F9F4FF068BD
S11308103F2E2AE030E0A3010E943305882E86187B
S113082045C0853731F4232D2F7EB22E2AE030E0E7
S113083025C0932D997FB92E8F36C1F018F48835D1
S113084079F0B5C0803719F0883721F0B0C0E92FAE
S1130850E061BE2EB4FE0DC0FB2DF460BF2E09C0B6
S113086034FE0AC0292F2660B22E06C028E030E0EC
S113087005C020E130E002C020E132E0F801B7FE1B
S113088007C060817181828193810C5F1F4F06C014
S11308906081718180E090E00E5F1F4FA3010E9490
S11308A03305882E8618FB2DFF773F2E36FE0DC0AC
S11308B0232D2E7FA22E891458F434FE0BC032FC53
S11308C009C0832D8E7EA82E05C0B82CA32C03C08E
S11308D0B82C01C0B92CA4FE0FC0FE01E80DF11D17
S11308E08081803321F49A2D997EA92E09C0A2FE1D
S11308F006C0B394B39404C08A2D867809F0B394E7
S1130900A3FC11C0A0FE06C0B21488F4280C922CDB
S11309109B180EC0B21460F4B60180E290E00E940D
S1130920F704B394F7CFB21418F42B1802C0982C20
S1130930212CA4FE10C0B60180E390E00E94F704CD
S1130940A2FE17C0A1FC03C088E790E002C088E5BE
S113095090E0B6010CC08A2D867859F0A1FE02C041
S11309608BE201C080E2A7FC8DE2B60190E00E9418
S1130970F704891438F4B60180E390E00E94F70488
S11309809A94F7CF8A94F301E80DF11D8081B601A2
S113099090E00E94F7048110F5CF222009F442CEA2
S11309A0B60180E290E00E94F7042A94F6CFF601A3
S11309B08681978102C08FEF9FEF2B96E2E10C9422
S11309C0AD05FC010590615070400110D8F7809589
S11309D090958E0F9F1F0895FC0161507040019007
S11309E00110D8F7809590958E0F9F1F08950F934F
S11309F01F93CF93DF93FB01238121FD03C08FEF6E
S1130A009FEF2CC022FF16C0468157812481358177
S1130A104217530744F4A081B1819D012F5F3F4FDA
S1130A20318320838C93268137812F5F3F4F378317
S1130A30268314C08B01EC01FB010084F185E02DB9
S1130A400995892BE1F6D80116968D919C911797FB
S1130A50019617969C938E931697CE01DF91CF91B2
S1130A601F910F910895FA01AA27283051F12031DE
S1130A7081F1E8946F936E7F6E5F7F4F8F4F9F4F2E
S1130A80AF4FB1E03ED0B4E03CD0670F781F891F70
S1130A909A1FA11D680F791F8A1F911DA11D6A0F3E
S1130AA0711D811D911DA11D20D009F468943F91F1
S1130AB02AE0269F11243019305D3193DEF6CF01F0
S1130AC00895462F4770405D4193B3E00FD0C9F7B6
S1130AD0F6CF462F4F70405D4A3318F0495D31FD23
S1130AE04052419302D0A9F7EACFB4E0A695979576
S1130AF0879577956795BA95C9F70097610571054C
S1130B0008959B01AC010A2E069457954795379595
S1130B102795BA95C9F7620F731F841F951FA01DEF
S1130B2008952F923F924F925F926F927F928F928D
S1130B309F92AF92BF92CF92DF92EF92FF920F9368
S1130B401F93CF93DF93CDB7DEB7CA1BDB0B0FB672
S1130B50F894DEBF0FBECDBF09942A88398848882F
S1130B605F846E847D848C849B84AA84B984C884C5
S1130B70DF80EE80FD800C811B81AA81B981CE0FBC
S1130B80D11D0FB6F894DEBF0FBECDBFED010895A1
S1070B90F894FFCF03
S1070B9425640000D0
S9030000FC
