:100000000C942A000C9447000C9447000C94470071
:100010000C9447000C9447000C9447000C94470044
:100020000C9447000C9447000C9447000C94470034
:100030000C9447000C9447000C9447000C94470024
:100040000C9447000C9447000C9447000C94470014
:100050000C94470011241FBECFE5D8E0DEBFCDBF12
:1000600013E0A0E6B0E0E6EDF3E102C005900D92EA
:10007000AE33B107D9F723E0AEE3B3E001C01D9280
:10008000A434B207E1F70E94C0020C94E9090C9471
:100090000000C09A2FE986E891E02150804090400E
:1000A000E1F700C00000C09887EA91E60197F1F7F8
:1000B00000C000000895672B09F09FC0009711F45D
:1000C000D89808958130910511F4D9980895823017
:1000D000910511F4DA9808958330910511F4DB98B5
:1000E00008958430910511F4DC98089585309105C8
:1000F00011F4DD9808958630910511F4DE98089585
:100100008730910511F4DF9808958A30910511F434
:10011000C09808958B30910511F4C19808958C30E2
:10012000910511F4C29808958D30910511F4C3988A
:1001300008958E30910511F4C49808958F3091057B
:1001400011F4C59808958031910511F4C698089569
:100150008131910511F4C79808958431910511F406
:10016000A89808958531910511F4A99808958631CC
:10017000910511F4AA9808958731910511F4AB986F
:1001800008958831910511F4AC980895893191054D
:1001900011F4AD9808958A31910511F4AE9808953F
:1001A0008B31910511F4AF9808958E31910511F4BA
:1001B000909808958F31910511F4919808958032A7
:1001C000910511F4929808958132910511F4939854
:1001D00008958232910511F494980895833291051F
:1001E00011F4959808958432910511F49698089524
:1001F000859709F09FC097980895009711F4D89AB1
:1002000008958130910511F4D99A089582309105AD
:1002100011F4DA9A08958330910511F4DB9A089568
:100220008430910511F4DC9A08958530910511F41C
:10023000DD9A08958630910511F4DE9A089587308D
:10024000910511F4DF9A08958A30910511F4C09A4E
:1002500008958B30910511F4C19A08958C30910561
:1002600011F4C29A08958D30910511F4C39A08953E
:100270008E30910511F4C49A08958F30910511F4D0
:10028000C59A08958031910511F4C69A0895813177
:10029000910511F4C79A08958431910511F4A89A33
:1002A00008958531910511F4A99A08958631910533
:1002B00011F4AA9A08958731910511F4AB9A089523
:1002C0008831910511F4AC9A08958931910511F4A2
:1002D000AD9A08958A31910511F4AE9A08958B3143
:1002E000910511F4AF9A08958E31910511F4909A09
:1002F00008958F31910511F4919A089580329105F6
:1003000011F4929A08958132910511F4939A089507
:100310008232910511F4949A08958332910511F473
:10032000959A08958432910511F4969A08958597C7
:1003300009F4979A0895CF93C82F80FF03C061E016
:1003400070E002C060E070E08EE190E00E945B002F
:10035000C1FF03C061E070E002C060E070E08FE1C7
:1003600090E00E945B00C2FF03C061E070E002C049
:1003700060E070E080E290E00E945B00C3FF03C099
:1003800061E070E002C060E070E081E290E00E9415
:100390005B00C4FF03C061E070E002C060E070E099
:1003A00082E290E00E945B00C5FF03C061E070E064
:1003B00002C060E070E083E290E00E945B00C6FF54
:1003C00003C061E070E002C060E070E084E290E0B1
:1003D0000E945B00C7FF03C061E070E002C060E004
:1003E00070E085E290E0CF910C945B00CF93C82F32
:1003F00060E070E08AE190E00E945B008C2F0E9438
:100400009B0161E070E08BE190E00E945B0089EF6E
:1004100090E00197F1F700C0000060E070E08BE130
:1004200090E00E945B0089EF90E00197F1F700C037
:100430000000CF91089581E00C94F60160E070E037
:100440008AE190E00E945B0060E070E08BE190E068
:100450000E945B0087E893E10197F1F700C000007C
:1004600080E30E94F60181EE94E00197F1F700C06D
:10047000000080E30E94F60189EF90E00197F1F718
:1004800000C0000080E30E94F60183EC99E0019730
:10049000F1F700C0000088E30E94F6018CE00E94A2
:1004A000F60181E00E94F60186E00C94F601CF93FC
:1004B000C82F61E070E08AE190E00E945B008C2F21
:1004C0000E949B0161E070E08BE190E00E945B0084
:1004D00089EF90E00197F1F700C0000060E070E064
:1004E0008BE190E00E945B0089EF90E00197F1F7CB
:1004F00000C00000CF910895CF93DF93EC01899164
:10050000882319F00E945702FACFDF91CF91089506
:1005100080E487B987E886B9089597B18770982BEA
:1005200097B9369A349BFECF349A84B195B1089529
:10053000D19AD99887E893E10197F1F700C00000BC
:10054000D99A0895D198C999FECFC99BFECFC99970
:10055000FECF089528E030E0C99BFECF8AE08A955F
:10056000F1F780913E03880FC999816080933E0323
:10057000C999FECF2150310979F780913E03089542
:10058000CF93DF93CDB7DEB7CB57D2400FB6F894F9
:10059000DEBF0FBECDBF86E792E0E0E6F0E0DE0111
:1005A000119601900D920197E1F78FEF81BB84BB0B
:1005B000B89AD79AD2980E941E020E948802EE240E
:1005C000E394F12C8E0109581D4F4BE0642E43E05B
:1005D000742E5BEFA52EBB24BA9465E0862E912C79
:1005E0000E9498020E94A2020E94AA0280934203E3
:1005F0000E94AA0280933F030E94AA0280934103B3
:100600000E94AA02809343030E94AA02809340039F
:1006100080E00E948D02BC01990F880B990B0E940B
:10062000A9052BE734E14EEF50E40E9435062CE596
:1006300037E743E455E40E9492040E947105462E78
:10064000372EC62ED72E80914103CA9B22C18832F5
:1006500008F01FC120E2C21623E0D2060CF019C137
:1006600085B38C7F85BBDF9881E0E816F10409F043
:100670006DC02091420380913F0390E0820F911D55
:1006800020914103820F911D20914303820F911D00
:100690002091400330E08217930731F080E80E94F8
:1006A000F60186ED92E04CC00E941B0280E80E9499
:1006B000F6018CED92E00E947C0280EC0E94F60133
:1006C00087EE92E00E947C02809142034AE0B801EA
:1006D00090E00E94CA068BE80E94F601C8010E94C1
:1006E0007C028FEE92E00E947C0280913F034AE000
:1006F000B80190E00E94CA06C8010E947C0281EF06
:1007000092E00E947C02809141034AE0B80190E0AF
:100710000E94CA0687EC0E94F601C8010E947C0272
:100720008FEE92E00E947C02809143034AE0B80180
:1007300090E00E94CA06C8010E947C0283EF92E00A
:100740000E947C0222E0E22EF12CE2C092E0E91647
:10075000F10409F07FC06091430370E080E090E015
:100760000E94A90520E030E040E251E40E94FF042D
:100770006B017C016091410370E080E090E00E9499
:10078000A9059B01AC01C701B6010E94930426E6AE
:1007900036E646EE5FE30E94350620E030E040E0BA
:1007A00052E40E9493040E947105CB018654910982
:1007B000B5010E94A2067B012EE0E20EF11C6091C1
:1007C0003F0370E080E090E00E94A90520E030E067
:1007D00040E251E40E94FF041B012C01609142039E
:1007E00070E080E090E00E94A9059B01AC01C2018D
:1007F000B1010E9493040E947105CB01B4010E94D3
:10080000A20685E18E9DF0018F9DF00D1124E60F6B
:10081000F71FEE0FFF1F81E090E08C0F9D1FE80F88
:10082000F91F4AE0B801808191810E94CA060E94A6
:100830001B0286EF92E00E947C0280EC0E94F6018F
:10084000C8010E947C0283EF92E00E947C02E12CAE
:10085000F12C5EC00E941B0284E093E00E947C02A7
:100860003F924F927F926F921F930F930E94EF06D9
:10087000C8010E947C028EE093E00E947C020F90EF
:100880000F900F900F900F900F90EE24E394F12CA7
:100890003FC0883288F00E941B0283E193E00E94EF
:1008A0007C0280EC0E94F60180E293E00E947C02D0
:1008B000A99A0E94490001C0A998CA9911C00E9432
:1008C0001B0289E293E00E947C0280EC0E94F60108
:1008D00082E393E00E947C02A89A0E94490001C032
:1008E000A89890E2C91693E0D9068CF00E941B02EA
:1008F00089E393E00E947C0280EC0E94F60180E292
:1009000093E00E947C02DF9A0E94490001C0DF98B8
:100910002FED83E994E0215080409040E1F700C042
:1009200000005ECE5058BB27AA270E94AA040C9450
:10093000FB050E94ED0538F00E94F40520F039F423
:100940009F3F19F426F40C94EA050EF4E095E7FBBA
:100950000C94E405E92F0E940C0658F3BA176207BD
:1009600073078407950720F079F4A6F50C942E06FA
:100970000EF4E0950B2EBA2FA02D0B01B9019001BA
:100980000C01CA01A0011124FF27591B99F0593FFE
:1009900050F4503E68F11A16F040A22F232F342F46
:1009A0004427585FF3CF469537952795A795F04094
:1009B0005395C9F77EF41F16BA0B620B730B840BA9
:1009C000BAF09150A1F0FF0FBB1F661F771F881F61
:1009D000C2F70EC0BA0F621F731F841F48F48795B9
:1009E00077956795B795F7959E3F08F0B0CF9395AB
:1009F000880F08F09927EE0F9795879508950E9424
:100A000013050C94FB050E94F40558F00E94ED05B7
:100A100040F029F45F3F29F00C94E40551110C9447
:100A20002F060C94EA050E940C0668F39923B1F393
:100A3000552391F3951B550BBB27AA276217730704
:100A4000840738F09F5F5F4F220F331F441FAA1F98
:100A5000A9F335D00E2E3AF0E0E832D09150504054
:100A6000E695001CCAF72BD0FE2F29D0660F771F02
:100A7000881FBB1F261737074807AB07B0E809F0E8
:100A8000BB0B802DBF01FF2793585F4F3AF09E3F6D
:100A9000510578F00C94E4050C942F065F3FE4F3C5
:100AA000983ED4F3869577956795B795F7959F5FB0
:100AB000C9F7880F911D9695879597F90895E1E0FC
:100AC000660F771F881FBB1F621773078407BA075B
:100AD00020F0621B730B840BBA0BEE1F88F7E095B6
:100AE00008950E9478056894B1110C942F0608951A
:100AF0000E94140688F09F5798F0B92F9927B75194
:100B0000B0F0E1F0660F771F881F991F1AF0BA95B1
:100B1000C9F714C0B13091F00E942E06B1E00895DB
:100B20000C942E06672F782F8827B85F39F0B93FCD
:100B3000CCF3869577956795B395D9F73EF4909564
:100B40008095709561957F4F8F4F9F4F0895E894E2
:100B500009C097FB3EF490958095709561957F4F05
:100B60008F4F9F4F9923A9F0F92F96E9BB279395B3
:100B7000F695879577956795B795F111F8CFFAF4C3
:100B8000BB0F11F460FF1BC06F5F7F4F8F4F9F4FF4
:100B900016C0882311F096E911C0772321F09EE852
:100BA000872F762F05C0662371F096E8862F70E0B8
:100BB00060E02AF09A95660F771F881FDAF7880F92
:100BC0009695879597F9089597F99F6780E870E063
:100BD00060E008959FEF80EC089500240A941616B3
:100BE000170618060906089500240A94121613061B
:100BF000140605060895092E0394000C11F48823A9
:100C000052F0BB0F40F4BF2B11F460FF04C06F5FC4
:100C10007F4F8F4F9F4F089557FD9058440F551F9A
:100C200059F05F3F71F04795880F97FB991F61F06E
:100C30009F3F79F087950895121613061406551FE5
:100C4000F2CF4695F1DF08C0161617061806991F51
:100C5000F1CF86957105610508940895E894BB2746
:100C600066277727CB0197F908950E9448060C94D0
:100C7000FB050E94ED0538F00E94F40520F0952355
:100C800011F00C94E4050C94EA0511240C942F0641
:100C90000E940C0670F3959FC1F3950F50E0551F0D
:100CA000629FF001729FBB27F00DB11D639FAA27C1
:100CB000F00DB11DAA1F649F6627B00DA11D661F10
:100CC000829F2227B00DA11D621F739FB00DA11D31
:100CD000621F839FA00D611D221F749F3327A00DEB
:100CE000611D231F849F600D211D822F762F6A2F87
:100CF00011249F5750409AF0F1F088234AF0EE0FEC
:100D0000FF1FBB1F661F771F881F91505040A9F718
:100D10009E3F510580F00C94E4050C942F065F3F34
:100D2000E4F3983ED4F3869577956795B795F79554
:100D3000E7959F5FC1F7FE2B880F911D96958795CC
:100D400097F9089597FB072E16F4009407D077FDC6
:100D500009D00E94B60607FC05D03EF49095819517
:100D60009F4F0895709561957F4F0895AA1BBB1BF7
:100D700051E107C0AA1FBB1FA617B70710F0A61B9B
:100D8000B70B881F991F5A95A9F780959095BC01BC
:100D9000CD010895BB274A3031F4992322F4BDE2F6
:100DA000909581959F4F0C94D606BB27FB01552744
:100DB000AA27880F991FAA1FA41710F0A41B8395B8
:100DC0005051B9F7A05DAA3308F0A95DA19300972F
:100DD00079F7B111B1931192CB010C940809AEE0EF
:100DE000B0E0E5EFF6E00C94C0090D891E8986E0BD
:100DF0008C831A8309838FEF9FE79E838D83AE01D7
:100E0000475E5F4F6F89788DCE0101960E94110772
:100E1000EF81F885E00FF11F10822E96E4E00C942C
:100E2000DC09ABE0B0E0E7E1F7E00C94B2096C015B
:100E30007B018A01FC0117821682838181FFCCC16C
:100E4000CE0101963C01F6019381F70193FD859156
:100E500093FF81917F01882309F4BAC1853239F467
:100E600093FD859193FF81917F01853229F4B6012D
:100E700090E00E941809E7CF912C212C312CFFE142
:100E8000F315D8F08B3279F038F4803279F0833270
:100E9000A1F4232D20611DC08D3261F0803369F4EF
:100EA000232D216016C0832D8260382EE32DE4604F
:100EB0003E2E2AC0F32DF8601DC037FC2DC020ED5A
:100EC000280F2A3040F08E32B9F436FC81C1232D30
:100ED0002064322E19C036FE06C08AE0989E200D8E
:100EE0001124922E11C0EAE02E9E200D1124222EF4
:100EF000F32DF0623F2E08C08C3621F4832D8068DC
:100F0000382E02C0883641F4F70193FD859193FF96
:100F100081917F018111B3CF982F9F7D955493309C
:100F200028F40C5F1F4F9FE399830DC0833631F087
:100F3000833771F0833509F059C021C0F8018081F1
:100F400089830E5F1F4F88248394912C530113C013
:100F50002801F2E04F0E511CF801A080B18036FE4E
:100F600003C0692D70E002C06FEF7FEFC5010E94E2
:100F7000FD084C018201F32DFF773F2E16C028019A
:100F800022E0420E511CF801A080B18036FE03C061
:100F9000692D70E002C06FEF7FEFC5010E94F2087B
:100FA0004C01F32DF0683F2E820133FC1BC0822DD3
:100FB00090E088169906B0F4B60180E290E00E94B5
:100FC00018092A94F4CFF50137FC859137FE8191F9
:100FD0005F01B60190E00E94180921102A9421E0D7
:100FE000821A91088114910471F7E8C0843611F0D7
:100FF000893641F5F80137FE07C060817181828131
:1010000093810C5F1F4F08C060817181072E000C17
:10101000880B990B0E5F1F4FF32DFF763F2E97FF26
:1010200009C090958095709561957F4F8F4F9F4F28
:10103000F0683F2E2AE030E0A3010E945409882E78
:10104000861845C0853731F4232D2F7EB22E2AE035
:1010500030E025C0932D997FB92E8F36C1F018F45A
:10106000883579F0B5C0803719F0883721F0B0C0E5
:10107000E92FE061BE2EB4FE0DC0FB2DF460BF2E43
:1010800009C034FE0AC0292F2660B22E06C028E00F
:1010900030E005C020E130E002C020E132E0F8019C
:1010A000B7FE07C060817181828193810C5F1F4F01
:1010B00006C06081718180E090E00E5F1F4FA30148
:1010C0000E945409882E8618FB2DFF773F2E36FE8E
:1010D0000DC0232D2E7FA22E891458F434FE0BC090
:1010E00032FC09C0832D8E7EA82E05C0B82CA32CFF
:1010F00003C0B82C01C0B92CA4FE0FC0FE01E80D3E
:10110000F11D8081803321F49A2D997EA92E09C08A
:10111000A2FE06C0B394B39404C08A2D867809F069
:10112000B394A3FC11C0A0FE06C0B21488F4280C2E
:10113000922C9B180EC0B21460F4B60180E290E0CD
:101140000E941809B394F7CFB21418F42B1802C0F8
:10115000982C212CA4FE10C0B60180E390E00E94E0
:101160001809A2FE17C0A1FC03C088E790E002C0E6
:1011700088E590E0B6010CC08A2D867859F0A1FE72
:1011800002C08BE201C080E2A7FC8DE2B60190E0D4
:101190000E941809891438F4B60180E390E00E9497
:1011A00018099A94F7CF8A94F301E80DF11D808114
:1011B000B60190E00E9418098110F5CF222009F4B1
:1011C00042CEB60180E290E00E9418092A94F6CF40
:1011D000F6018681978102C08FEF9FEF2B96E2E1A7
:1011E0000C94CE09FC010590615070400110D8F7B5
:1011F000809590958E0F9F1F0895FC01615070405F
:1012000001900110D8F7809590958E0F9F1F08953B
:10121000DC01FC01672F71917723E1F7329704C05D
:101220007C916D9370836291AE17BF07C8F30895E8
:101230000F931F93CF93DF93FB01238121FD03C005
:101240008FEF9FEF2CC022FF16C04681578124816B
:1012500035814217530744F4A081B1819D012F5F6E
:101260003F4F318320838C93268137812F5F3F4FFF
:101270003783268314C08B01EC01FB010084F185C8
:10128000E02D0995892BE1F6D80116968D919C9158
:101290001797019617969C938E931697CE01DF9120
:1012A000CF911F910F910895FA01AA27283051F18B
:1012B000203181F1E8946F936E7F6E5F7F4F8F4F87
:1012C0009F4FAF4FB1E03ED0B4E03CD0670F781FE6
:1012D000891F9A1FA11D680F791F8A1F911DA11DCB
:1012E0006A0F711D811D911DA11D20D009F4689404
:1012F0003F912AE0269F11243019305D3193DEF6AC
:10130000CF010895462F4770405D4193B3E00FD061
:10131000C9F7F6CF462F4F70405D4A3318F0495D4C
:1013200031FD4052419302D0A9F7EACFB4E0A6952F
:101330009795879577956795BA95C9F70097610551
:10134000710508959B01AC010A2E069457954795A7
:1013500037952795BA95C9F7620F731F841F951F9C
:10136000A01D08952F923F924F925F926F927F92AD
:101370008F929F92AF92BF92CF92DF92EF92FF92A5
:101380000F931F93CF93DF93CDB7DEB7CA1BDB0B51
:101390000FB6F894DEBF0FBECDBF09942A883988F6
:1013A00048885F846E847D848C849B84AA84B984FD
:1013B000C884DF80EE80FD800C811B81AA81B98109
:1013C000CE0FD11D0FB6F894DEBF0FBECDBFED011D
:0613D0000895F894FFCF20
:1013D60034000000000000000000000000000000D3
:1013E60000000000000000000000000000000000F7
:1013F6000000000000000000000031003500000081
:1014060000000000000000000000000000000000D6
:1014160000000000000000000000000000000000C6
:10142600000000002F00320037000000000000001E
:1014360000000000000000000000000000000000A6
:1014460000000000000000000000000000002C006A
:101456002F00330037003D000000000000000000B0
:101466000000000000000000000000000000000076
:1014760000000000000000002A002C002F003300AE
:1014860037003B00400000000000000000000000A4
:101496000000000000000000000000000000000046
:1014A600000027002A002C002E00310035003900EC
:1014B6003E004200000000000000000000000000A6
:1014C60000000000000000000000000025002700CA
:1014D60029002A002C002F00330036003A003E0077
:1014E60042000000000000000000000000000000B4
:1014F6000000000000002300240026002700290029
:101506002B002D0030003300360039003D0041002D
:1015160000000000000000000000000000000000C5
:1015260021002200230024002500260028002A008E
:101536002B002E003100340038003B003E00000036
:10154600000000000000000000001F002000200036
:1015560021002200220024002500260028002A005F
:101566002B002E003000330036003A000000000049
:10157600000000001C001D001D001E001F001F00B3
:101586002000210022002300240025002600270039
:1015960029002B002D002F003200000000001A0049
:1015A6001A001B001B001C001C001D001D001E0055
:1015B6001F001F002000200021002200230024001D
:1015C6002500270029002A00170017001800180018
:1015D600190019001A001A001A001B001B001B0034
:1015E6001C001C001D001E001E001F001F00200006
:1015F600210015001500150016001600160017002C
:101606001700170017001800180018001800190016
:1016160019001A001A001A001A001B001200120004
:10162600120012001300130013001300140014001C
:1016360015001500150015001500160016001600F9
:101646001600160016004572726F720048756D69B5
:1016560064697479203D0054656D70203D20002E2C
:101666000025002043004170706172656E7420543D
:10167600656D7000434F32203D20002564002070C8
:10168600706D0054656D70657261747572652000C9
:101696005761726E696E672100444554454354454F
:0E16A60044004C502047415300434F32000097
:00000001FF
